:0400000060EF09F0B4
:100F0000003F065B4F666D7D077F6F777C585E798B
:100F100071001D501E1058E112001F5020100CE0EF
:100F200001D80AD00500FA6E1F50FD6E2050FE6EEB
:100F3000F850FF6EFA50010C80EC09F0026E11A01F
:100F400002D0028E49D0029E47D01F5020100CE0E4
:100F500001D80AD00500FA6E1F50FD6E2050FE6EBB
:100F6000F850FF6EFA50020C82EC09F0026E11A2EA
:100F7000EAD7E7D71F5020100CE001D80AD00500AF
:100F8000FA6E1F50FD6E2050FE6EF850FF6EFA5044
:100F9000040C84EC09F0026E11A4D5D7D2D71F50EF
:100FA00020100CE001D80AD00500FA6E1F50FD6E2B
:100FB0002050FE6EF850FF6EFA50080C86EC09F0D7
:100FC000026E11A6C0D7BDD71050A7E0010ABDE040
:100FD000030AD0E0010AE3E01DC0D9FF1EC0DAFF1A
:100FE00002C0DFFF102A030E1064030C106A120007
:100FF0003DEC09F07CEC09F0810E016E0F0E026EE3
:1010000072EC09F0D80E016E110E026E77EC09F049
:101010002AEC09F0826A0F0EBB6E0F6A0A0E0E6E82
:101020000A6A0B6A0C6A0D6A0F013FA704D0010E11
:1010300002EC09F003D0010E16EC09F089EC07F080
:101040000BBE36D00B5003E13D0E0A5C31E30FBE00
:1010500008D00F5003E12C0E0E5C03E30F6A010E63
:101060000E6E0EA002D0BA8801D0BA980EA202D09D
:10107000BA8A01D0BA9A020E50EC09F0050E0E267B
:10108000000E0F220A6A0B6A160E016E62EC08F05F
:101090001BC001F01A50ABEC08F00C4A0D2A0DBE33
:1010A00007D00D5003E1640E0C5C02E30C6A0D6A7C
:1010B0000A4A0B2A080E096ECA0EE82EFED7092E20
:1010C000FCD7B2D70F013FB9FDD76BEC09F00F0188
:1010D0003F813F830150D96EDA6A98CF02F00F0E3C
:1010E000021698382CD899500150D96EDA6A020E3F
:1010F00017D8D92A2AD823D80150D96EDA6A040E13
:101100000FD8030ED92699CFDFFF0150D96EDA6AC6
:10111000060E06D8050ED92618D811D83F9B120006
:10112000D92698CF02F00F0E021698380F0B0A0D31
:10113000F3500224DF6E0150D96EDA6A12000F0BF1
:101140000A0DF3500224DF6E120099CF02F00F0E49
:10115000021699381200076E010E086E036A046ABF
:10116000056A066A630E076016D003D00A0E075E92
:10117000032A0A0E0760FAD70850032426D8F5CFB1
:1011800015F002D00706052A0750FCE10850052497
:101190001CD8F5CF14F0630E0160630C03D00A0E67
:1011A000015E042A0A0E0160FAD7085004240DD803
:1011B000F5CF13F002D00106062A0150FCE10850D9
:1011C000062403D8F5CF12F01200026E02C0F6FF1B
:1011D0000F0EF76E08001200016E01A002D0BF8052
:1011E00001D0BF9001A202D0BF8201D0BF9201A462
:1011F00002D0BF8401D0BF9401A602D0BF861200E6
:10120000BF961200016E08D01180120011821200E8
:1012100011841200118612000150010AF5E0030A40
:10122000F5E0010AF5E0070AF5E01200016E08D0CA
:1012300011901200119212001194120011961200D6
:101240000150010AF5E0030AF5E0010AF5E0070A9A
:10125000F5E01200800E9B6E600ED36E0F013D6BA9
:10126000080ECD6E1F0E496F020E3C6F6BEC09F03D
:10127000800E0F013F6F3F9B800C0E01FF910E0E01
:10128000D56F0F0ED66F100ED76F110ED86FFF816E
:101290000A0ECB6E040ECA6E0C0EBA6EBF6A120036
:1012A000016E01A002D0BA8801D0BA9801A202D082
:1012B000BA8A01D0BA9A0140E8423F0BBB6E1200D5
:1012C00000EE10F00D0EEE6AE806FDE1000EF86E7D
:1012D0000001F8EF07F00F01550EA76EAA0EA76EDA
:1012E0003F8BAA0C01C01DF002C01EF0120001C00D
:1012F0001FF002C020F012000F0E946E936A1200CD
:101300001250120013501200145012001550120007
:08FFF800A0F410FFFFF9FFF176
:00000001FF
